{
  "contractName": "mortal",
  "abi": [
    {
      "constant": false,
      "inputs": [],
      "name": "destroy",
      "outputs": [],
      "payable": false,
      "stateMutability": "nonpayable",
      "type": "function"
    }
  ],
  "bytecode": "0x6080604052336000806101000a81548173ffffffffffffffffffffffffffffffffffffffff021916908373ffffffffffffffffffffffffffffffffffffffff1602179055506101ad806100536000396000f300608060405260043610610041576000357c0100000000000000000000000000000000000000000000000000000000900463ffffffff16806383197ef014610046575b600080fd5b34801561005257600080fd5b5061005b61005d565b005b6000809054906101000a900473ffffffffffffffffffffffffffffffffffffffff1673ffffffffffffffffffffffffffffffffffffffff163373ffffffffffffffffffffffffffffffffffffffff16141515610147576040517f08c379a000000000000000000000000000000000000000000000000000000000815260040180806020018281038252602e8152602001807f4f6e6c792074686520636f6e7472616374206f776e65722063616e2063616c6c81526020017f20746869732066756e6374696f6e00000000000000000000000000000000000081525060400191505060405180910390fd5b6000809054906101000a900473ffffffffffffffffffffffffffffffffffffffff1673ffffffffffffffffffffffffffffffffffffffff16ff00a165627a7a72305820b52b736989dfd421cb1067f2d78ffab8873160376da958919df7a17c8032d64d0029",
  "source": "// SPDX-License-Identifier: UNLICENSED\npragma solidity ^0.4.22;\n\ncontract owned {\n    address owner;\n\n    // Contract constructor: set owner\n    constructor() public {\n        owner = msg.sender;\n    }\n\n    // Access control modifier\n    modifier onlyOwner() {\n        require(\n            msg.sender == owner,\n            \"Only the contract owner can call this function\"\n        );\n        _; // ????\n    }\n}\n\ncontract mortal is owned {\n    // Contract destructor\n    function destroy() public onlyOwner {\n        selfdestruct(owner);\n    }\n}\n\ncontract Faucet is mortal {\n    event Withdrawal(address indexed to, uint256 amount);\n    event Deposit(address indexed from, uint256 amount);\n\n    // Give out ether to anyone who asks\n    function withdraw(uint256 withdraw_amount) public {\n        // Limit withdrawal amount\n        require(withdraw_amount <= 0.1 ether);\n        require(\n            address(this).balance >= withdraw_amount,\n            \"Insufficient balance in faucet for withdrawal request\"\n        );\n        // Send the amount to the address that requested it\n        msg.sender.transfer(withdraw_amount);\n        emit Withdrawal(msg.sender, withdraw_amount);\n    }\n    // Accept any incoming amount\n    function () external payable {\n        emit Deposit(msg.sender, msg.value);\n    }\n}\n",
  "sourcePath": "/home/racerten/Solidity-Playground/Ethereum-Faucet-Project/contracts/Faucet.sol",
  "compiler": {
    "name": "solc",
    "version": "0.4.22+commit.4cb486ee.Emscripten.clang"
  },
  "schemaVersion": "3.4.11",
  "updatedAt": "2022-12-27T03:47:14.118Z",
  "devdoc": {
    "methods": {}
  },
  "userdoc": {
    "methods": {}
  }
}